{
  "_format": "hh-sol-artifact-1",
  "contractName": "PLEDGETOKEN",
  "sourceName": "contracts/Pledge.sol",
  "abi": [
    {
      "inputs": [],
      "stateMutability": "nonpayable",
      "type": "constructor"
    },
    {
      "anonymous": false,
      "inputs": [
        {
          "indexed": true,
          "internalType": "address",
          "name": "owner",
          "type": "address"
        },
        {
          "indexed": true,
          "internalType": "address",
          "name": "spender",
          "type": "address"
        },
        {
          "indexed": false,
          "internalType": "uint256",
          "name": "value",
          "type": "uint256"
        }
      ],
      "name": "Approval",
      "type": "event"
    },
    {
      "anonymous": false,
      "inputs": [
        {
          "indexed": false,
          "internalType": "address",
          "name": "user",
          "type": "address"
        },
        {
          "indexed": false,
          "internalType": "bool",
          "name": "isExlcude",
          "type": "bool"
        }
      ],
      "name": "ExcludeFromFee",
      "type": "event"
    },
    {
      "anonymous": false,
      "inputs": [
        {
          "indexed": true,
          "internalType": "address",
          "name": "previousOwner",
          "type": "address"
        },
        {
          "indexed": true,
          "internalType": "address",
          "name": "newOwner",
          "type": "address"
        }
      ],
      "name": "OwnershipTransferred",
      "type": "event"
    },
    {
      "anonymous": false,
      "inputs": [
        {
          "components": [
            {
              "internalType": "uint256",
              "name": "marketing",
              "type": "uint256"
            },
            {
              "internalType": "uint256",
              "name": "charity",
              "type": "uint256"
            },
            {
              "internalType": "uint256",
              "name": "liquidity",
              "type": "uint256"
            },
            {
              "internalType": "uint256",
              "name": "lottery",
              "type": "uint256"
            }
          ],
          "indexed": false,
          "internalType": "struct PLEDGETOKEN.Fees",
          "name": "fees",
          "type": "tuple"
        }
      ],
      "name": "SetFee",
      "type": "event"
    },
    {
      "anonymous": false,
      "inputs": [
        {
          "indexed": false,
          "internalType": "uint256",
          "name": "tokensSwapped",
          "type": "uint256"
        },
        {
          "indexed": false,
          "internalType": "uint256",
          "name": "ethReceived",
          "type": "uint256"
        },
        {
          "indexed": false,
          "internalType": "uint256",
          "name": "tokensIntoLiqudity",
          "type": "uint256"
        }
      ],
      "name": "SwapAndLiquify",
      "type": "event"
    },
    {
      "anonymous": false,
      "inputs": [
        {
          "indexed": true,
          "internalType": "address",
          "name": "from",
          "type": "address"
        },
        {
          "indexed": true,
          "internalType": "address",
          "name": "to",
          "type": "address"
        },
        {
          "indexed": false,
          "internalType": "uint256",
          "name": "value",
          "type": "uint256"
        }
      ],
      "name": "Transfer",
      "type": "event"
    },
    {
      "inputs": [],
      "name": "_maxTxAmount",
      "outputs": [
        {
          "internalType": "uint256",
          "name": "",
          "type": "uint256"
        }
      ],
      "stateMutability": "view",
      "type": "function"
    },
    {
      "inputs": [
        {
          "internalType": "address",
          "name": "owner",
          "type": "address"
        },
        {
          "internalType": "address",
          "name": "spender",
          "type": "address"
        }
      ],
      "name": "allowance",
      "outputs": [
        {
          "internalType": "uint256",
          "name": "",
          "type": "uint256"
        }
      ],
      "stateMutability": "view",
      "type": "function"
    },
    {
      "inputs": [
        {
          "internalType": "address",
          "name": "spender",
          "type": "address"
        },
        {
          "internalType": "uint256",
          "name": "amount",
          "type": "uint256"
        }
      ],
      "name": "approve",
      "outputs": [
        {
          "internalType": "bool",
          "name": "",
          "type": "bool"
        }
      ],
      "stateMutability": "nonpayable",
      "type": "function"
    },
    {
      "inputs": [
        {
          "internalType": "address",
          "name": "account",
          "type": "address"
        }
      ],
      "name": "balanceOf",
      "outputs": [
        {
          "internalType": "uint256",
          "name": "",
          "type": "uint256"
        }
      ],
      "stateMutability": "view",
      "type": "function"
    },
    {
      "inputs": [
        {
          "internalType": "uint256",
          "name": "amount",
          "type": "uint256"
        }
      ],
      "name": "burn",
      "outputs": [],
      "stateMutability": "nonpayable",
      "type": "function"
    },
    {
      "inputs": [],
      "name": "charityAddress",
      "outputs": [
        {
          "internalType": "address",
          "name": "",
          "type": "address"
        }
      ],
      "stateMutability": "view",
      "type": "function"
    },
    {
      "inputs": [],
      "name": "decimals",
      "outputs": [
        {
          "internalType": "uint8",
          "name": "",
          "type": "uint8"
        }
      ],
      "stateMutability": "view",
      "type": "function"
    },
    {
      "inputs": [
        {
          "internalType": "address",
          "name": "spender",
          "type": "address"
        },
        {
          "internalType": "uint256",
          "name": "subtractedValue",
          "type": "uint256"
        }
      ],
      "name": "decreaseAllowance",
      "outputs": [
        {
          "internalType": "bool",
          "name": "",
          "type": "bool"
        }
      ],
      "stateMutability": "nonpayable",
      "type": "function"
    },
    {
      "inputs": [
        {
          "internalType": "address",
          "name": "user",
          "type": "address"
        },
        {
          "internalType": "bool",
          "name": "_isExclude",
          "type": "bool"
        }
      ],
      "name": "excludeAddressFromFee",
      "outputs": [],
      "stateMutability": "nonpayable",
      "type": "function"
    },
    {
      "inputs": [],
      "name": "fees",
      "outputs": [
        {
          "internalType": "uint256",
          "name": "marketing",
          "type": "uint256"
        },
        {
          "internalType": "uint256",
          "name": "charity",
          "type": "uint256"
        },
        {
          "internalType": "uint256",
          "name": "liquidity",
          "type": "uint256"
        },
        {
          "internalType": "uint256",
          "name": "lottery",
          "type": "uint256"
        }
      ],
      "stateMutability": "view",
      "type": "function"
    },
    {
      "inputs": [],
      "name": "getOwner",
      "outputs": [
        {
          "internalType": "address",
          "name": "",
          "type": "address"
        }
      ],
      "stateMutability": "view",
      "type": "function"
    },
    {
      "inputs": [],
      "name": "getTotalFee",
      "outputs": [
        {
          "internalType": "uint256",
          "name": "",
          "type": "uint256"
        }
      ],
      "stateMutability": "view",
      "type": "function"
    },
    {
      "inputs": [
        {
          "internalType": "address",
          "name": "spender",
          "type": "address"
        },
        {
          "internalType": "uint256",
          "name": "addedValue",
          "type": "uint256"
        }
      ],
      "name": "increaseAllowance",
      "outputs": [
        {
          "internalType": "bool",
          "name": "",
          "type": "bool"
        }
      ],
      "stateMutability": "nonpayable",
      "type": "function"
    },
    {
      "inputs": [],
      "name": "lotteryAddress",
      "outputs": [
        {
          "internalType": "address",
          "name": "",
          "type": "address"
        }
      ],
      "stateMutability": "view",
      "type": "function"
    },
    {
      "inputs": [],
      "name": "marketingAddress",
      "outputs": [
        {
          "internalType": "address",
          "name": "",
          "type": "address"
        }
      ],
      "stateMutability": "view",
      "type": "function"
    },
    {
      "inputs": [],
      "name": "name",
      "outputs": [
        {
          "internalType": "string",
          "name": "",
          "type": "string"
        }
      ],
      "stateMutability": "view",
      "type": "function"
    },
    {
      "inputs": [],
      "name": "numTokensSellToAddToLiquidity",
      "outputs": [
        {
          "internalType": "uint256",
          "name": "",
          "type": "uint256"
        }
      ],
      "stateMutability": "view",
      "type": "function"
    },
    {
      "inputs": [],
      "name": "originFees",
      "outputs": [
        {
          "internalType": "uint256",
          "name": "marketing",
          "type": "uint256"
        },
        {
          "internalType": "uint256",
          "name": "charity",
          "type": "uint256"
        },
        {
          "internalType": "uint256",
          "name": "liquidity",
          "type": "uint256"
        },
        {
          "internalType": "uint256",
          "name": "lottery",
          "type": "uint256"
        }
      ],
      "stateMutability": "view",
      "type": "function"
    },
    {
      "inputs": [],
      "name": "owner",
      "outputs": [
        {
          "internalType": "address",
          "name": "",
          "type": "address"
        }
      ],
      "stateMutability": "view",
      "type": "function"
    },
    {
      "inputs": [],
      "name": "pancakeswapRouter",
      "outputs": [
        {
          "internalType": "contract IPancakeswapRouter",
          "name": "",
          "type": "address"
        }
      ],
      "stateMutability": "view",
      "type": "function"
    },
    {
      "inputs": [],
      "name": "pancakeswapV2Pair",
      "outputs": [
        {
          "internalType": "address",
          "name": "",
          "type": "address"
        }
      ],
      "stateMutability": "view",
      "type": "function"
    },
    {
      "inputs": [],
      "name": "renounceOwnership",
      "outputs": [],
      "stateMutability": "nonpayable",
      "type": "function"
    },
    {
      "inputs": [],
      "name": "restoreFee",
      "outputs": [],
      "stateMutability": "nonpayable",
      "type": "function"
    },
    {
      "inputs": [
        {
          "internalType": "uint256",
          "name": "_marketingFee",
          "type": "uint256"
        },
        {
          "internalType": "uint256",
          "name": "_charityFee",
          "type": "uint256"
        },
        {
          "internalType": "uint256",
          "name": "_liquidityFee",
          "type": "uint256"
        },
        {
          "internalType": "uint256",
          "name": "_lotteryFee",
          "type": "uint256"
        }
      ],
      "name": "setFee",
      "outputs": [],
      "stateMutability": "nonpayable",
      "type": "function"
    },
    {
      "inputs": [
        {
          "internalType": "address",
          "name": "_marketingAddress",
          "type": "address"
        },
        {
          "internalType": "address",
          "name": "_charityAddress",
          "type": "address"
        },
        {
          "internalType": "address",
          "name": "_lotteryAddress",
          "type": "address"
        }
      ],
      "name": "setFeeAddresses",
      "outputs": [],
      "stateMutability": "nonpayable",
      "type": "function"
    },
    {
      "inputs": [
        {
          "internalType": "address",
          "name": "_RouterAddress",
          "type": "address"
        }
      ],
      "name": "setInitialAddresses",
      "outputs": [],
      "stateMutability": "nonpayable",
      "type": "function"
    },
    {
      "inputs": [
        {
          "internalType": "uint256",
          "name": "maxTxAmount",
          "type": "uint256"
        }
      ],
      "name": "setMaxTxAmount",
      "outputs": [],
      "stateMutability": "nonpayable",
      "type": "function"
    },
    {
      "inputs": [],
      "name": "startTime",
      "outputs": [
        {
          "internalType": "uint256",
          "name": "",
          "type": "uint256"
        }
      ],
      "stateMutability": "view",
      "type": "function"
    },
    {
      "inputs": [],
      "name": "swapAndLiquifyEnabled",
      "outputs": [
        {
          "internalType": "bool",
          "name": "",
          "type": "bool"
        }
      ],
      "stateMutability": "view",
      "type": "function"
    },
    {
      "inputs": [],
      "name": "symbol",
      "outputs": [
        {
          "internalType": "string",
          "name": "",
          "type": "string"
        }
      ],
      "stateMutability": "view",
      "type": "function"
    },
    {
      "inputs": [],
      "name": "totalSupply",
      "outputs": [
        {
          "internalType": "uint256",
          "name": "",
          "type": "uint256"
        }
      ],
      "stateMutability": "view",
      "type": "function"
    },
    {
      "inputs": [
        {
          "internalType": "address",
          "name": "recipient",
          "type": "address"
        },
        {
          "internalType": "uint256",
          "name": "amount",
          "type": "uint256"
        }
      ],
      "name": "transfer",
      "outputs": [
        {
          "internalType": "bool",
          "name": "",
          "type": "bool"
        }
      ],
      "stateMutability": "nonpayable",
      "type": "function"
    },
    {
      "inputs": [
        {
          "internalType": "address",
          "name": "sender",
          "type": "address"
        },
        {
          "internalType": "address",
          "name": "recipient",
          "type": "address"
        },
        {
          "internalType": "uint256",
          "name": "amount",
          "type": "uint256"
        }
      ],
      "name": "transferFrom",
      "outputs": [
        {
          "internalType": "bool",
          "name": "",
          "type": "bool"
        }
      ],
      "stateMutability": "nonpayable",
      "type": "function"
    },
    {
      "inputs": [
        {
          "internalType": "address",
          "name": "newOwner",
          "type": "address"
        }
      ],
      "name": "transferOwnership",
      "outputs": [],
      "stateMutability": "nonpayable",
      "type": "function"
    },
    {
      "stateMutability": "payable",
      "type": "receive"
    }
  ],
  "bytecode": "0x6080604052600b805460ff60a81b1916600160a81b1790556c7e37be2022c0914b268000000060155569152d02c7e14af68000006016553480156200004357600080fd5b50600062000050620001dc565b600080546001600160a01b0319166001600160a01b0383169081178255604051929350917f8be0079c531659141344cd1fd0a4f28419497f9722a3daafe3b4186f6b6457e0908290a35060408051808201909152600680825265504c4544474560d01b6020909201918252620000c79181620001e0565b506040805180820190915260038082526250554360e81b6020909201918252620000f491600591620001e0565b506004805460ff191660129081179091556d314dc6448d9338c15b0a00000000600381905533600081815260016020526040808220849055600a600c8190556032600d8190556023600e8190556019600f8190556010939093556011919091559095556013949094554260185592519092917fddf252ad1be2c89b69c2b068fc378daa952ba7f163c4a11628f55a4df523b3ef91620001949190620002a5565b60405180910390a37f25dff7ddd4f931edbb7e5a8526919801072398f5a4a30265f1ba2c52e65febf36010604051620001ce91906200027c565b60405180910390a1620002ae565b3390565b828054600181600116156101000203166002900490600052602060002090601f016020900481019282601f106200022357805160ff191683800117855562000253565b8280016001018555821562000253579182015b828111156200025357825182559160200191906001019062000236565b506200026192915062000265565b5090565b5b8082111562000261576000815560010162000266565b815481526001820154602082015260028201546040820152600390910154606082015260800190565b90815260200190565b611f0f80620002be6000396000f3fe6080604052600436106101fd5760003560e01c80637ae316d01161010d578063a5ece941116100a0578063d12a76881161006f578063d12a76881461053f578063db6754ed14610554578063dd62ed3e14610569578063ec28438a14610589578063f2fde38b146105a957610204565b8063a5ece941146104d5578063a9059cbb146104ea578063aa1ef5981461050a578063afcf2fc41461052a57610204565b806395d89b41116100dc57806395d89b411461046b5780639af1d35a14610480578063a2a957bb14610495578063a457c2d7146104b557610204565b80637ae316d0146104175780637d1db4a51461042c578063893d20e8146104415780638da5cb5b1461045657610204565b80633950935111610190578063528928841161015f578063528928841461039857806370a08231146103ad578063715018a6146103cd57806378e97925146103e2578063799bec12146103f757610204565b806339509351146103215780633beedf6d1461034157806342966c68146103635780634a74bb021461038357610204565b8063239c982f116101cc578063239c982f146102a857806323b872dd146102bf57806328ec13ee146102df578063313ce567146102ff57610204565b806306fdde0314610209578063095ea7b3146102345780630bce29b31461026157806318160ddd1461028657610204565b3661020457005b600080fd5b34801561021557600080fd5b5061021e6105c9565b60405161022b9190611a67565b60405180910390f35b34801561024057600080fd5b5061025461024f366004611937565b61065f565b60405161022b9190611a5c565b34801561026d57600080fd5b5061027661067d565b60405161022b9493929190611e06565b34801561029257600080fd5b5061029b61068c565b60405161022b9190611d77565b3480156102b457600080fd5b506102bd610692565b005b3480156102cb57600080fd5b506102546102da3660046118c6565b610722565b3480156102eb57600080fd5b506102bd6102fa36600461180c565b6107a9565b34801561030b57600080fd5b5061031461097f565b60405161022b9190611e21565b34801561032d57600080fd5b5061025461033c366004611937565b610988565b34801561034d57600080fd5b506103566109d6565b60405161022b91906119d8565b34801561036f57600080fd5b506102bd61037e366004611962565b6109e5565b34801561038f57600080fd5b506102546109f2565b3480156103a457600080fd5b50610356610a02565b3480156103b957600080fd5b5061029b6103c836600461180c565b610a11565b3480156103d957600080fd5b506102bd610a2c565b3480156103ee57600080fd5b5061029b610aab565b34801561040357600080fd5b506102bd610412366004611906565b610ab1565b34801561042357600080fd5b5061029b610b48565b34801561043857600080fd5b5061029b610b5a565b34801561044d57600080fd5b50610356610b60565b34801561046257600080fd5b50610356610b6f565b34801561047757600080fd5b5061021e610b7e565b34801561048c57600080fd5b50610276610bdf565b3480156104a157600080fd5b506102bd6104b03660046119a7565b610bee565b3480156104c157600080fd5b506102546104d0366004611937565b610c73565b3480156104e157600080fd5b50610356610cdb565b3480156104f657600080fd5b50610254610505366004611937565b610cea565b34801561051657600080fd5b506102bd61052536600461187c565b610cfe565b34801561053657600080fd5b50610356610d72565b34801561054b57600080fd5b5061029b610d81565b34801561056057600080fd5b50610356610d87565b34801561057557600080fd5b5061029b610584366004611844565b610d96565b34801561059557600080fd5b506102bd6105a4366004611962565b610dc1565b3480156105b557600080fd5b506102bd6105c436600461180c565b610dfb565b60068054604080516020601f60026000196101006001881615020190951694909404938401819004810282018101909252828152606093909290918301828280156106555780601f1061062a57610100808354040283529160200191610655565b820191906000526020600020905b81548152906001019060200180831161063857829003601f168201915b5050505050905090565b600061067361066c610e39565b8484610e3d565b5060015b92915050565b600c54600d54600e54600f5484565b60035490565b61069a610e39565b6000546001600160a01b039081169116146106d05760405162461bcd60e51b81526004016106c790611c01565b60405180910390fd5b600c546010908155600d54601155600e54601255600f546013556040517f25dff7ddd4f931edbb7e5a8526919801072398f5a4a30265f1ba2c52e65febf39161071891611d4e565b60405180910390a1565b600061072f848484610ef1565b61079f8461073b610e39565b61079a85604051806060016040528060288152602001611e45602891396001600160a01b038a16600090815260026020526040812090610779610e39565b6001600160a01b0316815260208101919091526040016000205491906112b9565b610e3d565b5060019392505050565b6107b1610e39565b6000546001600160a01b039081169116146107de5760405162461bcd60e51b81526004016106c790611c01565b600a80546001600160a01b0319166001600160a01b0383169081179091556040805163c45a015560e01b8152905183929163c45a0155916004808301926020929190829003018186803b15801561083457600080fd5b505afa158015610848573d6000803e3d6000fd5b505050506040513d601f19601f8201168201806040525081019061086c9190611828565b6001600160a01b031663c9c6539630836001600160a01b031663ad5c46486040518163ffffffff1660e01b815260040160206040518083038186803b1580156108b457600080fd5b505afa1580156108c8573d6000803e3d6000fd5b505050506040513d601f19601f820116820180604052508101906108ec9190611828565b6040518363ffffffff1660e01b81526004016109099291906119ec565b602060405180830381600087803b15801561092357600080fd5b505af1158015610937573d6000803e3d6000fd5b505050506040513d601f19601f8201168201806040525081019061095b9190611828565b600b80546001600160a01b0319166001600160a01b03929092169190911790555050565b60045460ff1690565b6000610673610995610e39565b8461079a85600260006109a6610e39565b6001600160a01b03908116825260208083019390935260409182016000908120918c1681529252902054906112e5565b6009546001600160a01b031681565b6109ef3382611311565b50565b600b54600160a81b900460ff1681565b600b546001600160a01b031681565b6001600160a01b031660009081526001602052604090205490565b610a34610e39565b6000546001600160a01b03908116911614610a615760405162461bcd60e51b81526004016106c790611c01565b600080546040516001600160a01b03909116907f8be0079c531659141344cd1fd0a4f28419497f9722a3daafe3b4186f6b6457e0908390a3600080546001600160a01b0319169055565b60185481565b610ab9610e39565b6000546001600160a01b03908116911614610ae65760405162461bcd60e51b81526004016106c790611c01565b6001600160a01b03821660009081526014602052604090819020805460ff1916831515179055517fd5144d2a6c8ff9b87b7a40852df5102cab2ce561c06b56cc6fe7ccf1fa7f8c2d90610b3c9084908490611a41565b60405180910390a15050565b60135460125460115460105401010190565b60155481565b6000610b6a610b6f565b905090565b6000546001600160a01b031690565b60058054604080516020601f60026000196101006001881615020190951694909404938401819004810282018101909252828152606093909290918301828280156106555780601f1061062a57610100808354040283529160200191610655565b60105460115460125460135484565b610bf6610e39565b6000546001600160a01b03908116911614610c235760405162461bcd60e51b81526004016106c790611c01565b60108481556011849055601283905560138290556040517f25dff7ddd4f931edbb7e5a8526919801072398f5a4a30265f1ba2c52e65febf391610c6591611d4e565b60405180910390a150505050565b6000610673610c80610e39565b8461079a85604051806060016040528060258152602001611e936025913960026000610caa610e39565b6001600160a01b03908116825260208083019390935260409182016000908120918d168152925290205491906112b9565b6007546001600160a01b031681565b6000610673610cf7610e39565b8484610ef1565b610d06610e39565b6000546001600160a01b03908116911614610d335760405162461bcd60e51b81526004016106c790611c01565b600780546001600160a01b039485166001600160a01b031991821617909155600880549385169382169390931790925560098054919093169116179055565b6008546001600160a01b031681565b60165481565b600a546001600160a01b031681565b6001600160a01b03918216600090815260026020908152604080832093909416825291909152205490565b610dc9610e39565b6000546001600160a01b03908116911614610df65760405162461bcd60e51b81526004016106c790611c01565b601555565b610e03610e39565b6000546001600160a01b03908116911614610e305760405162461bcd60e51b81526004016106c790611c01565b6109ef816113e7565b3390565b6001600160a01b038316610e635760405162461bcd60e51b81526004016106c790611aff565b6001600160a01b038216610e895760405162461bcd60e51b81526004016106c790611d0c565b6001600160a01b0380841660008181526002602090815260408083209487168084529490915290819020849055517f8c5be1e5ebec7d5bd14f71427d1e84f3dd0314c0f7b2291e5b200ac8c7c3b92590610ee4908590611d77565b60405180910390a3505050565b6001600160a01b038316610f175760405162461bcd60e51b81526004016106c790611aba565b6001600160a01b038216610f3d5760405162461bcd60e51b81526004016106c790611c36565b600b546001600160a01b0384811691161480610f665750600b546001600160a01b038381169116145b8015610f8b5750610f75610b6f565b6001600160a01b0316836001600160a01b031614155b15610fb257806015541015610fb25760405162461bcd60e51b81526004016106c790611cba565b610fef81604051806060016040528060268152602001611e6d602691396001600160a01b03861660009081526001602052604090205491906112b9565b6001600160a01b038416600090815260016020526040812091909155819061101630610a11565b9050601554811061102657506015545b601654811080159081906110445750600b54600160a01b900460ff16155b801561105e5750600b546001600160a01b03878116911614155b80156110735750600b54600160a81b900460ff165b1561108657601654915061108682611468565b6001600160a01b03861660009081526014602052604090205460ff16611226576001600160a01b0386166000908152601760205260409020546301e1855842919091031015611135576110fc6103e86110f660506110e2610b48565b6103e803038661150990919063ffffffff16565b90611543565b925061110f6103e86110f6866050611509565b6007546001600160a01b0316600090815260016020526040902080549091019055611154565b6111516103e86110f6611146610b48565b86906103e803611509565b92505b60105461116a906103e8906110f6908790611509565b6007546001600160a01b03166000908152600160205260409020805490910190556011546111a1906103e8906110f6908790611509565b6008546001600160a01b03166000908152600160205260409020805490910190556013546111d8906103e8906110f6908790611509565b6009546001600160a01b031660009081526001602052604090208054909101905560125461120f906103e8906110f6908790611509565b306000908152600160205260409020805490910190555b6001600160a01b03851660009081526001602052604090205461124990846112e5565b6001600160a01b03808716600081815260016020908152604080832095909555928a16808252601790935283902042905591517fddf252ad1be2c89b69c2b068fc378daa952ba7f163c4a11628f55a4df523b3ef906112a9908890611d77565b60405180910390a3505050505050565b600081848411156112dd5760405162461bcd60e51b81526004016106c79190611a67565b505050900390565b60008282018381101561130a5760405162461bcd60e51b81526004016106c790611b89565b9392505050565b6001600160a01b0382166113375760405162461bcd60e51b81526004016106c790611c79565b61137481604051806060016040528060228152602001611eb8602291396001600160a01b03851660009081526001602052604090205491906112b9565b6001600160a01b03831660009081526001602052604090205560035461139a9082611585565b6003556040516000906001600160a01b038416907fddf252ad1be2c89b69c2b068fc378daa952ba7f163c4a11628f55a4df523b3ef906113db908590611d77565b60405180910390a35050565b6001600160a01b03811661140d5760405162461bcd60e51b81526004016106c790611b43565b600080546040516001600160a01b03808516939216917f8be0079c531659141344cd1fd0a4f28419497f9722a3daafe3b4186f6b6457e091a3600080546001600160a01b0319166001600160a01b0392909216919091179055565b600b805460ff60a01b1916600160a01b1790556000611488826002611543565b905060006114968383611585565b9050476114a2836115c7565b60006114ae4783611585565b90506114ba8382611723565b7f17bbfb9a6069321b6ded73bd96327c9e6b7212a5cd51ff219cd61370acafb5618482856040516114ed93929190611df0565b60405180910390a15050600b805460ff60a01b19169055505050565b60008261151857506000610677565b8282028284828161152557fe5b041461130a5760405162461bcd60e51b81526004016106c790611bc0565b600061130a83836040518060400160405280601a81526020017f536166654d6174683a206469766973696f6e206279207a65726f0000000000008152506117d5565b600061130a83836040518060400160405280601e81526020017f536166654d6174683a207375627472616374696f6e206f766572666c6f7700008152506112b9565b604080516002808252606080830184529260208301908036833701905050905030816000815181106115f557fe5b6001600160a01b03928316602091820292909201810191909152600a54604080516315ab88c960e31b81529051919093169263ad5c4648926004808301939192829003018186803b15801561164957600080fd5b505afa15801561165d573d6000803e3d6000fd5b505050506040513d601f19601f820116820180604052508101906116819190611828565b8160018151811061168e57fe5b6001600160a01b039283166020918202929092010152600a546116b49130911684610e3d565b600a5460405163791ac94760e01b81526001600160a01b039091169063791ac947906116ed908590600090869030904290600401611d80565b600060405180830381600087803b15801561170757600080fd5b505af115801561171b573d6000803e3d6000fd5b505050505050565b600a5461173b9030906001600160a01b031684610e3d565b600a546001600160a01b031663f305d71982308560008061175a610b6f565b426040518863ffffffff1660e01b815260040161177c96959493929190611a06565b6060604051808303818588803b15801561179557600080fd5b505af11580156117a9573d6000803e3d6000fd5b50505050506040513d601f19601f820116820180604052508101906117ce919061197a565b5050505050565b600081836117f65760405162461bcd60e51b81526004016106c79190611a67565b50600083858161180257fe5b0495945050505050565b60006020828403121561181d578081fd5b813561130a81611e2f565b600060208284031215611839578081fd5b815161130a81611e2f565b60008060408385031215611856578081fd5b823561186181611e2f565b9150602083013561187181611e2f565b809150509250929050565b600080600060608486031215611890578081fd5b833561189b81611e2f565b925060208401356118ab81611e2f565b915060408401356118bb81611e2f565b809150509250925092565b6000806000606084860312156118da578283fd5b83356118e581611e2f565b925060208401356118f581611e2f565b929592945050506040919091013590565b60008060408385031215611918578182fd5b823561192381611e2f565b915060208301358015158114611871578182fd5b60008060408385031215611949578182fd5b823561195481611e2f565b946020939093013593505050565b600060208284031215611973578081fd5b5035919050565b60008060006060848603121561198e578283fd5b8351925060208401519150604084015190509250925092565b600080600080608085870312156119bc578081fd5b5050823594602084013594506040840135936060013592509050565b6001600160a01b0391909116815260200190565b6001600160a01b0392831681529116602082015260400190565b6001600160a01b039687168152602081019590955260408501939093526060840191909152909216608082015260a081019190915260c00190565b6001600160a01b039290921682521515602082015260400190565b901515815260200190565b6000602080835283518082850152825b81811015611a9357858101830151858201604001528201611a77565b81811115611aa45783604083870101525b50601f01601f1916929092016040019392505050565b60208082526025908201527f42455032303a207472616e736665722066726f6d20746865207a65726f206164604082015264647265737360d81b606082015260800190565b60208082526024908201527f42455032303a20617070726f76652066726f6d20746865207a65726f206164646040820152637265737360e01b606082015260800190565b60208082526026908201527f4f776e61626c653a206e6577206f776e657220697320746865207a65726f206160408201526564647265737360d01b606082015260800190565b6020808252601b908201527f536166654d6174683a206164646974696f6e206f766572666c6f770000000000604082015260600190565b60208082526021908201527f536166654d6174683a206d756c7469706c69636174696f6e206f766572666c6f6040820152607760f81b606082015260800190565b6020808252818101527f4f776e61626c653a2063616c6c6572206973206e6f7420746865206f776e6572604082015260600190565b60208082526023908201527f42455032303a207472616e7366657220746f20746865207a65726f206164647260408201526265737360e81b606082015260800190565b60208082526021908201527f42455032303a206275726e2066726f6d20746865207a65726f206164647265736040820152607360f81b606082015260800190565b60208082526032908201527f42455032303a207472616e7366657220616d6f756e742065786365656473206d604082015271185e081d1c985b9cd9995c88185b5bdd5b9d60721b606082015260800190565b60208082526022908201527f42455032303a20617070726f766520746f20746865207a65726f206164647265604082015261737360f01b606082015260800190565b815481526001820154602082015260028201546040820152600390910154606082015260800190565b90815260200190565b600060a082018783526020878185015260a0604085015281875180845260c0860191508289019350845b81811015611dcf5784516001600160a01b031683529383019391830191600101611daa565b50506001600160a01b03969096166060850152505050608001529392505050565b9283526020830191909152604082015260600190565b93845260208401929092526040830152606082015260800190565b60ff91909116815260200190565b6001600160a01b03811681146109ef57600080fdfe42455032303a207472616e7366657220616d6f756e74206578636565647320616c6c6f77616e636542455032303a207472616e7366657220616d6f756e7420657863656564732062616c616e636542455032303a2064656372656173656420616c6c6f77616e63652062656c6f77207a65726f42455032303a206275726e20616d6f756e7420657863656564732062616c616e6365a26469706673582212205b7b4a1364fd9d5181fb09e3c9538df441999316ab9d036cd3bbceeb86fb70eb64736f6c634300060c0033",
  "linkReferences": {},
  "deployedLinkReferences": {}
}