{
  "_format": "hh-sol-artifact-1",
  "contractName": "Staking",
  "sourceName": "contracts/staking.sol",
  "abi": [
    {
      "inputs": [
        {
          "internalType": "address",
          "name": "_stakeTokenAddress",
          "type": "address"
        },
        {
          "internalType": "address",
          "name": "_rewardTokenAddress_1",
          "type": "address"
        },
        {
          "internalType": "address",
          "name": "_rewardTokenAddress_2",
          "type": "address"
        }
      ],
      "stateMutability": "nonpayable",
      "type": "constructor"
    },
    {
      "anonymous": false,
      "inputs": [
        {
          "indexed": true,
          "internalType": "address",
          "name": "previousOwner",
          "type": "address"
        },
        {
          "indexed": true,
          "internalType": "address",
          "name": "newOwner",
          "type": "address"
        }
      ],
      "name": "OwnershipTransferred",
      "type": "event"
    },
    {
      "anonymous": false,
      "inputs": [
        {
          "indexed": false,
          "internalType": "address",
          "name": "staker",
          "type": "address"
        },
        {
          "indexed": false,
          "internalType": "uint256",
          "name": "amount_1",
          "type": "uint256"
        },
        {
          "indexed": false,
          "internalType": "uint256",
          "name": "amount_2",
          "type": "uint256"
        }
      ],
      "name": "Reward",
      "type": "event"
    },
    {
      "anonymous": false,
      "inputs": [
        {
          "indexed": false,
          "internalType": "address",
          "name": "staker",
          "type": "address"
        },
        {
          "indexed": false,
          "internalType": "uint256",
          "name": "amount",
          "type": "uint256"
        }
      ],
      "name": "Stake",
      "type": "event"
    },
    {
      "anonymous": false,
      "inputs": [
        {
          "indexed": false,
          "internalType": "address",
          "name": "staker",
          "type": "address"
        },
        {
          "indexed": false,
          "internalType": "uint256",
          "name": "amount",
          "type": "uint256"
        }
      ],
      "name": "Withdraw",
      "type": "event"
    },
    {
      "inputs": [],
      "name": "APY",
      "outputs": [
        {
          "internalType": "uint256",
          "name": "",
          "type": "uint256"
        }
      ],
      "stateMutability": "view",
      "type": "function"
    },
    {
      "inputs": [
        {
          "internalType": "address",
          "name": "stakerAddress",
          "type": "address"
        }
      ],
      "name": "checkReward",
      "outputs": [
        {
          "internalType": "uint256",
          "name": "_reward_1",
          "type": "uint256"
        },
        {
          "internalType": "uint256",
          "name": "_reward_2",
          "type": "uint256"
        }
      ],
      "stateMutability": "view",
      "type": "function"
    },
    {
      "inputs": [],
      "name": "claimRewards",
      "outputs": [],
      "stateMutability": "nonpayable",
      "type": "function"
    },
    {
      "inputs": [
        {
          "internalType": "address",
          "name": "stakerAddress",
          "type": "address"
        }
      ],
      "name": "countFee",
      "outputs": [
        {
          "internalType": "uint256",
          "name": "_fee",
          "type": "uint256"
        }
      ],
      "stateMutability": "view",
      "type": "function"
    },
    {
      "inputs": [
        {
          "internalType": "address",
          "name": "stakerAddress",
          "type": "address"
        }
      ],
      "name": "countReward",
      "outputs": [
        {
          "internalType": "uint256",
          "name": "_reward_1",
          "type": "uint256"
        },
        {
          "internalType": "uint256",
          "name": "_reward_2",
          "type": "uint256"
        }
      ],
      "stateMutability": "view",
      "type": "function"
    },
    {
      "inputs": [
        {
          "internalType": "address",
          "name": "stakerAddress",
          "type": "address"
        }
      ],
      "name": "countStake",
      "outputs": [
        {
          "internalType": "uint256",
          "name": "_stake",
          "type": "uint256"
        }
      ],
      "stateMutability": "view",
      "type": "function"
    },
    {
      "inputs": [],
      "name": "countTotalReward",
      "outputs": [
        {
          "internalType": "uint256",
          "name": "_totalReward_1",
          "type": "uint256"
        },
        {
          "internalType": "uint256",
          "name": "_totalReward_2",
          "type": "uint256"
        }
      ],
      "stateMutability": "view",
      "type": "function"
    },
    {
      "inputs": [],
      "name": "countTotalStake",
      "outputs": [
        {
          "internalType": "uint256",
          "name": "_totalStake",
          "type": "uint256"
        }
      ],
      "stateMutability": "view",
      "type": "function"
    },
    {
      "inputs": [],
      "name": "getRewardableAmount",
      "outputs": [
        {
          "internalType": "uint256",
          "name": "_rewardableAmount_1",
          "type": "uint256"
        },
        {
          "internalType": "uint256",
          "name": "_rewardableAmount_2",
          "type": "uint256"
        }
      ],
      "stateMutability": "view",
      "type": "function"
    },
    {
      "inputs": [
        {
          "internalType": "address",
          "name": "stakerAddress",
          "type": "address"
        }
      ],
      "name": "getStakeInfo",
      "outputs": [
        {
          "internalType": "uint256",
          "name": "_total",
          "type": "uint256"
        },
        {
          "internalType": "uint256",
          "name": "_staking",
          "type": "uint256"
        },
        {
          "internalType": "uint256",
          "name": "_rewardable_1",
          "type": "uint256"
        },
        {
          "internalType": "uint256",
          "name": "_rewardable_2",
          "type": "uint256"
        },
        {
          "internalType": "uint256",
          "name": "_rewards_1",
          "type": "uint256"
        },
        {
          "internalType": "uint256",
          "name": "_rewards_2",
          "type": "uint256"
        }
      ],
      "stateMutability": "view",
      "type": "function"
    },
    {
      "inputs": [],
      "name": "lastUpdateTime",
      "outputs": [
        {
          "internalType": "uint256",
          "name": "",
          "type": "uint256"
        }
      ],
      "stateMutability": "view",
      "type": "function"
    },
    {
      "inputs": [],
      "name": "owner",
      "outputs": [
        {
          "internalType": "address",
          "name": "",
          "type": "address"
        }
      ],
      "stateMutability": "view",
      "type": "function"
    },
    {
      "inputs": [],
      "name": "pancakeswapRouter",
      "outputs": [
        {
          "internalType": "contract IPancakeswapRouter",
          "name": "",
          "type": "address"
        }
      ],
      "stateMutability": "view",
      "type": "function"
    },
    {
      "inputs": [],
      "name": "renounceOwnership",
      "outputs": [],
      "stateMutability": "nonpayable",
      "type": "function"
    },
    {
      "inputs": [],
      "name": "rewardTokenAddress_1",
      "outputs": [
        {
          "internalType": "address",
          "name": "",
          "type": "address"
        }
      ],
      "stateMutability": "view",
      "type": "function"
    },
    {
      "inputs": [],
      "name": "rewardTokenAddress_2",
      "outputs": [
        {
          "internalType": "address",
          "name": "",
          "type": "address"
        }
      ],
      "stateMutability": "view",
      "type": "function"
    },
    {
      "inputs": [
        {
          "internalType": "address",
          "name": "_RouterAddress",
          "type": "address"
        }
      ],
      "name": "setInitialAddresses",
      "outputs": [],
      "stateMutability": "nonpayable",
      "type": "function"
    },
    {
      "inputs": [
        {
          "internalType": "uint256",
          "name": "amount",
          "type": "uint256"
        }
      ],
      "name": "stake",
      "outputs": [],
      "stateMutability": "nonpayable",
      "type": "function"
    },
    {
      "inputs": [],
      "name": "stakeTokenAddress",
      "outputs": [
        {
          "internalType": "address",
          "name": "",
          "type": "address"
        }
      ],
      "stateMutability": "view",
      "type": "function"
    },
    {
      "inputs": [],
      "name": "stakerNum",
      "outputs": [
        {
          "internalType": "uint256",
          "name": "",
          "type": "uint256"
        }
      ],
      "stateMutability": "view",
      "type": "function"
    },
    {
      "inputs": [
        {
          "internalType": "address",
          "name": "",
          "type": "address"
        }
      ],
      "name": "stakers",
      "outputs": [
        {
          "internalType": "address",
          "name": "referal",
          "type": "address"
        },
        {
          "internalType": "uint256",
          "name": "stakingAmount",
          "type": "uint256"
        },
        {
          "internalType": "uint256",
          "name": "lastUpdateTime",
          "type": "uint256"
        },
        {
          "internalType": "uint256",
          "name": "lastStakeUpdateTime",
          "type": "uint256"
        },
        {
          "internalType": "uint256",
          "name": "stake",
          "type": "uint256"
        },
        {
          "internalType": "uint256",
          "name": "rewards_1",
          "type": "uint256"
        },
        {
          "internalType": "uint256",
          "name": "rewards_2",
          "type": "uint256"
        }
      ],
      "stateMutability": "view",
      "type": "function"
    },
    {
      "inputs": [],
      "name": "swapTokenForReward",
      "outputs": [],
      "stateMutability": "nonpayable",
      "type": "function"
    },
    {
      "inputs": [],
      "name": "totalStake",
      "outputs": [
        {
          "internalType": "uint256",
          "name": "",
          "type": "uint256"
        }
      ],
      "stateMutability": "view",
      "type": "function"
    },
    {
      "inputs": [],
      "name": "totalStakingAmount",
      "outputs": [
        {
          "internalType": "uint256",
          "name": "",
          "type": "uint256"
        }
      ],
      "stateMutability": "view",
      "type": "function"
    },
    {
      "inputs": [
        {
          "internalType": "address",
          "name": "newOwner",
          "type": "address"
        }
      ],
      "name": "transferOwnership",
      "outputs": [],
      "stateMutability": "nonpayable",
      "type": "function"
    },
    {
      "inputs": [],
      "name": "unstaking",
      "outputs": [],
      "stateMutability": "nonpayable",
      "type": "function"
    }
  ],
  "bytecode": "0x608060405234801561001057600080fd5b50604051611f4e380380611f4e8339818101604052606081101561003357600080fd5b5080516020820151604090920151909190600061004e6100e1565b600080546001600160a01b0319166001600160a01b0383169081178255604051929350917f8be0079c531659141344cd1fd0a4f28419497f9722a3daafe3b4186f6b6457e0908290a350600180546001600160a01b039384166001600160a01b031991821617909155600280549284169282169290921790915560038054939092169216919091179055426005556100e5565b3390565b611e5a806100f46000396000f3fe608060405234801561001057600080fd5b506004361061018e5760003560e01c80639168ae72116100de578063c8f33c9111610097578063e7caa8c411610071578063e7caa8c4146103e8578063ef8bd305146103f0578063f2fde38b146103f8578063f4eb4a591461041e5761018e565b8063c8f33c91146103d0578063d201114a146103d8578063db6754ed146103e05761018e565b80639168ae7214610280578063a694fc3a146102e8578063b083692d14610305578063b87089d91461032b578063c345315314610351578063c3c90e64146103aa5761018e565b806356714be31161014b57806363c138b31161012557806363c138b314610260578063715018a6146102685780638b0e9f3f146102705780638da5cb5b146102785761018e565b806356714be3146102115780635f920bba14610250578063630b1146146102585761018e565b80630106395f1461019357806301c15475146101b75780630a84bf3e146101bf5780632461da55146101c757806328ec13ee146101e1578063372500ab14610209575b600080fd5b61019b610426565b604080516001600160a01b039092168252519081900360200190f35b61019b610435565b61019b610444565b6101cf610453565b60408051918252519081900360200190f35b610207600480360360208110156101f757600080fd5b50356001600160a01b031661047f565b005b61020761050b565b6102376004803603602081101561022757600080fd5b50356001600160a01b031661071c565b6040805192835260208301919091528051918290030190f35b610207610792565b6102076107af565b6101cf61099c565b6102076109a2565b6101cf610a56565b61019b610a5c565b6102a66004803603602081101561029657600080fd5b50356001600160a01b0316610a6c565b604080516001600160a01b0390981688526020880196909652868601949094526060860192909252608085015260a084015260c0830152519081900360e00190f35b610207600480360360208110156102fe57600080fd5b5035610ab3565b6101cf6004803603602081101561031b57600080fd5b50356001600160a01b0316610bf5565b6101cf6004803603602081101561034157600080fd5b50356001600160a01b0316610c38565b6103776004803603602081101561036757600080fd5b50356001600160a01b0316610ced565b604080519687526020870195909552858501939093526060850191909152608084015260a0830152519081900360c00190f35b610237600480360360208110156103c057600080fd5b50356001600160a01b0316610d50565b6101cf6111ca565b6101cf6111d0565b61019b6111d6565b6102376111e5565b6101cf6112e1565b6102076004803603602081101561040e57600080fd5b50356001600160a01b03166117a6565b61023761181c565b6003546001600160a01b031681565b6001546001600160a01b031681565b6002546001600160a01b031681565b600061047661046d600554426118c190919063ffffffff16565b60045490611917565b60065401905090565b61048761197a565b6000546001600160a01b039081169116146104e9576040805162461bcd60e51b815260206004820181905260248201527f4f776e61626c653a2063616c6c6572206973206e6f7420746865206f776e6572604482015290519081900360640190fd5b600880546001600160a01b0319166001600160a01b0392909216919091179055565b3361051461197e565b600061051f82610c38565b905060008061052d8461071c565b9150915060008211610586576040805162461bcd60e51b815260206004820152601c60248201527f7374616b696e67203a2072657761726420616d6f756e74206973203000000000604482015290519081900360640190fd5b6001546002546040805163a9059cbb60e01b81526001600160a01b038881166004830152602482018790529151938216939290911691839163a9059cbb9160448083019260209291908290030181600087803b1580156105e557600080fd5b505af11580156105f9573d6000803e3d6000fd5b505050506040513d602081101561060f57600080fd5b50506040805163a9059cbb60e01b81526001600160a01b0388811660048301526024820186905291519183169163a9059cbb916044808201926020929091908290030181600087803b15801561066457600080fd5b505af1158015610678573d6000803e3d6000fd5b505050506040513d602081101561068e57600080fd5b50506001600160a01b03861660008181526009602090815260408083206005810180548a019055600680820180548a01905580548b9003905560048101939093554260029093019290925581519283528201869052818101859052517f02a6a2be713fedf52f113c0a759f1c1a23a113476d9b1b1a2a453c910660de4e9181900360600190a1505050505050565b6000806000610729610453565b90506000806107366111e5565b91509150600061074587610c38565b90508315610766576107618461075b8584611917565b906119b5565b610769565b60005b955083156107845761077f8461075b8484611917565b610787565b60005b945050505050915091565b60008061079d61181c565b915091506107ab8282611a13565b5050565b3360008181526009602052604090206001015460006107cd83610bf5565b90506107d883610c38565b6001600160a01b038416600090815260096020526040902060048101919091556001810180548490039055426002820181905560039091015561081961197e565b6004805483900390556003546001600160a01b031663a9059cbb61083b610a5c565b61084b6103e861075b8787611917565b6040518363ffffffff1660e01b815260040180836001600160a01b0316815260200182815260200192505050602060405180830381600087803b15801561089157600080fd5b505af11580156108a5573d6000803e3d6000fd5b505050506040513d60208110156108bb57600080fd5b50506003546001600160a01b031663a9059cbb846108e16103e861075b87878303611917565b6040518363ffffffff1660e01b815260040180836001600160a01b0316815260200182815260200192505050602060405180830381600087803b15801561092757600080fd5b505af115801561093b573d6000803e3d6000fd5b505050506040513d602081101561095157600080fd5b5050604080516001600160a01b03851681526020810184905281517f884edad9ce6fa2440d8a54cc123490eb96d2768479d49ff9c7366125a9424364929181900390910190a1505050565b60075481565b6109aa61197a565b6000546001600160a01b03908116911614610a0c576040805162461bcd60e51b815260206004820181905260248201527f4f776e61626c653a2063616c6c6572206973206e6f7420746865206f776e6572604482015290519081900360640190fd5b600080546040516001600160a01b03909116907f8be0079c531659141344cd1fd0a4f28419497f9722a3daafe3b4186f6b6457e0908390a3600080546001600160a01b0319169055565b60065481565b6000546001600160a01b03165b90565b60096020526000908152604090208054600182015460028301546003840154600485015460058601546006909601546001600160a01b039095169593949293919290919087565b33600081815260096020526040902060020154610ad4576007805460010190555b610add81610c38565b6001600160a01b03821660009081526009602052604090206004810191909155600181018054840190554260028201819055600390910155610b1d61197e565b600354604080516323b872dd60e01b81526001600160a01b03848116600483015230602483015260448201869052915191909216916323b872dd9160648083019260209291908290030181600087803b158015610b7957600080fd5b505af1158015610b8d573d6000803e3d6000fd5b505050506040513d6020811015610ba357600080fd5b50506004805483019055604080516001600160a01b03831681526020810184905281517febedb8b3c678666e7f36970bc8f57abf6d8fa2e828c0da91ea5b75bf68ed101a929181900390910190a15050565b6001600160a01b03811660009081526009602052604081206003015462278d0090610c219042906118c1565b1015610c2f5750600a610c33565b5060005b919050565b6000610c42611db8565b506001600160a01b03808316600090815260096020908152604091829020825160e0810184528154909416845260018101549184019190915260028101549183018290526003810154606084015260048101546080840152600581015460a08401526006015460c0830152610cbb576000915050610c33565b610ce08160200151610cda8360400151426118c190919063ffffffff16565b90611917565b6080909101510192915050565b6004546001600160a01b03821660009081526009602052604081206001015490808080610d198761071c565b6001600160a01b03909816600090815260096020526040902060058101546006909101549799969891979196909550909350915050565b6000806000610d5d610453565b9050600080610d6a6111e5565b91509150600080610d7961181c565b9150915067016345785d8a000082118015610d9b575067016345785d8a000081115b1561117657604080516002808252606080830184529260208301908036833750506040805160028082526060808301845294955090925090602083019080368337505060035484519293506001600160a01b031691849150600090610dfc57fe5b6001600160a01b0392831660209182029290920101526001805484519216918491908110610e2657fe5b6001600160a01b03928316602091820292909201015260035482519116908290600090610e4f57fe5b6001600160a01b039283166020918202929092010152600254825191169082906001908110610e7a57fe5b6001600160a01b039283166020918202929092018101919091526008546040805163d06ca61f60e01b81526004810189815260248201928352875160448301528751606096949094169463d06ca61f948b948a949092606490910191858201910280838360005b83811015610ef9578181015183820152602001610ee1565b50505050905001935050505060006040518083038186803b158015610f1d57600080fd5b505afa158015610f31573d6000803e3d6000fd5b505050506040513d6000823e601f3d908101601f191682016040526020811015610f5a57600080fd5b8101908080516040519392919084600160201b821115610f7957600080fd5b908301906020820185811115610f8e57600080fd5b82518660208202830111600160201b82111715610faa57600080fd5b82525081516020918201928201910280838360005b83811015610fd7578181015183820152602001610fbf565b5050505091909101604081815260085463d06ca61f60e01b8352600483018c8152602484019283528a5160448501528a519899506060986001600160a01b03909216975063d06ca61f96508c95508a945092606401906020808601910280838360005b8381101561105257818101518382015260200161103a565b50505050905001935050505060006040518083038186803b15801561107657600080fd5b505afa15801561108a573d6000803e3d6000fd5b505050506040513d6000823e601f3d908101601f1916820160405260208110156110b357600080fd5b8101908080516040519392919084600160201b8211156110d257600080fd5b9083019060208201858111156110e757600080fd5b82518660208202830111600160201b8211171561110357600080fd5b82525081516020918201928201910280838360005b83811015611130578181015183820152602001611118565b5050505090500160405250505090508160008151811061114c57fe5b6020026020010151880197508060008151811061116557fe5b602002602001015187019650505050505b600061118189610c38565b9050851561119c576111978661075b8784611917565b61119f565b60005b975085156111ba576111b58661075b8684611917565b6111bd565b60005b9650505050505050915091565b60055481565b60045481565b6008546001600160a01b031681565b600154604080516370a0823160e01b8152306004820152905160009283926001600160a01b03909116916370a0823191602480820192602092909190829003018186803b15801561123557600080fd5b505afa158015611249573d6000803e3d6000fd5b505050506040513d602081101561125f57600080fd5b5051600254604080516370a0823160e01b815230600482015290519294506001600160a01b03909116916370a0823191602480820192602092909190829003018186803b1580156112af57600080fd5b505afa1580156112c3573d6000803e3d6000fd5b505050506040513d60208110156112d957600080fd5b505191929050565b6000806112ec610453565b9050806112fd576000915050610a69565b6000806113086111e5565b9150915060008067016345785d8a00008411801561132d575067016345785d8a000083115b1561170457604080516002808252606080830184529260208301908036833750506040805160028082526060808301845294955090925090602083019080368337505060035484519293506001600160a01b03169184915060009061138e57fe5b6001600160a01b03928316602091820292909201015260018054845192169184919081106113b857fe5b6001600160a01b039283166020918202929092010152600354825191169082906000906113e157fe5b6001600160a01b03928316602091820292909201015260025482519116908290600190811061140c57fe5b6001600160a01b03928316602091820292909201810191909152600854604080516307c0329d60e21b8152600481018b8152602482019283528751604483015287516060969490941694631f00ca74948d948a949092606490910191858201910280838360005b8381101561148b578181015183820152602001611473565b50505050905001935050505060006040518083038186803b1580156114af57600080fd5b505afa1580156114c3573d6000803e3d6000fd5b505050506040513d6000823e601f3d908101601f1916820160405260208110156114ec57600080fd5b8101908080516040519392919084600160201b82111561150b57600080fd5b90830190602082018581111561152057600080fd5b82518660208202830111600160201b8211171561153c57600080fd5b82525081516020918201928201910280838360005b83811015611569578181015183820152602001611551565b505050509190910160408181526008546307c0329d60e21b8352600483018e8152602484019283528a5160448501528a519899506060986001600160a01b039092169750631f00ca7496508e95508a945092606401906020808601910280838360005b838110156115e45781810151838201526020016115cc565b50505050905001935050505060006040518083038186803b15801561160857600080fd5b505afa15801561161c573d6000803e3d6000fd5b505050506040513d6000823e601f3d908101601f19168201604052602081101561164557600080fd5b8101908080516040519392919084600160201b82111561166457600080fd5b90830190602082018581111561167957600080fd5b82518660208202830111600160201b8211171561169557600080fd5b82525081516020918201928201910280838360005b838110156116c25781810151838201526020016116aa565b505050509050016040525050509050816000815181106116de57fe5b60200260200101519550806001815181106116f557fe5b60200260200101519450505050505b60048054600354604080516370a0823160e01b81523094810194909452516000936001600160a01b03909216916370a08231916024808301926020929190829003018186803b15801561175657600080fd5b505afa15801561176a573d6000803e3d6000fd5b505050506040513d602081101561178057600080fd5b50518484010103905085651cae8c13e00082028161179a57fe5b04965050505050505090565b6117ae61197a565b6000546001600160a01b03908116911614611810576040805162461bcd60e51b815260206004820181905260248201527f4f776e61626c653a2063616c6c6572206973206e6f7420746865206f776e6572604482015290519081900360640190fd5b61181981611d18565b50565b6000806000600454600360009054906101000a90046001600160a01b03166001600160a01b03166370a08231306040518263ffffffff1660e01b815260040180826001600160a01b0316815260200191505060206040518083038186803b15801561188657600080fd5b505afa15801561189a573d6000803e3d6000fd5b505050506040513d60208110156118b057600080fd5b505160029190030493849350915050565b80820382811115611911576040805162461bcd60e51b815260206004820152601560248201527464732d6d6174682d7375622d756e646572666c6f7760581b604482015290519081900360640190fd5b92915050565b60008115806119325750508082028282828161192f57fe5b04145b611911576040805162461bcd60e51b815260206004820152601460248201527364732d6d6174682d6d756c2d6f766572666c6f7760601b604482015290519081900360640190fd5b3390565b600061198861181c565b509050678ac7230489e800008111156119a3576119a3610792565b6119ab610453565b6006555042600555565b6000808211611a02576040805162461bcd60e51b815260206004820152601460248201527364732d6d6174682d6d756c2d6f766572666c6f7760601b604482015290519081900360640190fd5b818381611a0b57fe5b049392505050565b604080516002808252606080830184529260208301908036833750506040805160028082526060808301845294955090925090602083019080368337505060035484519293506001600160a01b031691849150600090611a6f57fe5b6001600160a01b0392831660209182029290920101526001805484519216918491908110611a9957fe5b6001600160a01b03928316602091820292909201015260035482519116908290600090611ac257fe5b6001600160a01b039283166020918202929092010152600254825191169082906001908110611aed57fe5b6001600160a01b039283166020918202929092018101919091526003546008546040805163095ea7b360e01b81529185166004830152888801602483015251919093169263095ea7b39260448083019391928290030181600087803b158015611b5557600080fd5b505af1158015611b69573d6000803e3d6000fd5b505050506040513d6020811015611b7f57600080fd5b5050600854604051635c11d79560e01b8152600481018681526000602483018190523060648401819052426084850181905260a060448601908152885160a487015288516001600160a01b0390971696635c11d795968c968b9594939092909160c40190602087810191028083838b5b83811015611c07578181015183820152602001611bef565b505050509050019650505050505050600060405180830381600087803b158015611c3057600080fd5b505af1158015611c44573d6000803e3d6000fd5b5050600854604051635c11d79560e01b8152600481018781526000602483018190523060648401819052426084850181905260a060448601908152895160a487015289516001600160a01b039097169850635c11d79597508b9693958a95939492939260c490910190602080880191028083838b5b83811015611cd1578181015183820152602001611cb9565b505050509050019650505050505050600060405180830381600087803b158015611cfa57600080fd5b505af1158015611d0e573d6000803e3d6000fd5b5050505050505050565b6001600160a01b038116611d5d5760405162461bcd60e51b8152600401808060200182810382526026815260200180611dff6026913960400191505060405180910390fd5b600080546040516001600160a01b03808516939216917f8be0079c531659141344cd1fd0a4f28419497f9722a3daafe3b4186f6b6457e091a3600080546001600160a01b0319166001600160a01b0392909216919091179055565b6040518060e0016040528060006001600160a01b03168152602001600081526020016000815260200160008152602001600081526020016000815260200160008152509056fe4f776e61626c653a206e6577206f776e657220697320746865207a65726f2061646472657373a2646970667358221220b9edbf2bcc42ef04bf6939906ca49f7a0a0f901696bb549a0cd6b1dd57a1495264736f6c634300060c0033",
  "linkReferences": {},
  "deployedLinkReferences": {}
}